:020000040800F2
:10000000B0060020CD010008F107000869060008CD
:10001000ED0700087D0200087B10000800000000CA
:10002000000000000000000000000000490B000874
:10003000810200080000000005090008590B0008B3
:10004000E7010008E7010008E7010008E7010008F0
:10005000E7010008E701000885020008D102000856
:10006000E5020008F90200080D030008E701000896
:10007000E7010008E7010008E7010008E7010008C0
:10008000E7010008E7010008E7010008E7010008B0
:10009000E7010008E7010008E70100082103000864
:1000A000E7010008E7010008E7010008E701000890
:1000B000E7010008510C0008E7010008E70100080B
:1000C000E7010008E7010008E7010008E701000870
:1000D000E7010008B90E0008E7010008E701000881
:1000E00099020008E7010008E7010008E70100089D
:1000F000E7010008E7010008E7010008E701000840
:10010000E7010008E7010008E7010008E70100082F
:10011000E7010008E7010008E7010008E70100081F
:10012000E7010008E7010008E7010008E70100080F
:1001300000F002F800F03AF80AA090E8000C8244BF
:100140008344AAF10107DA4501D100F02FF8AFF29C
:10015000090EBAE80F0013F0010F18BFFB1A43F0A5
:1001600001031847281B0000481B0000103A24BF59
:1001700078C878C1FAD8520724BF30C830C144BF0C
:1001800004680C607047000000230024002500264E
:10019000103A28BF78C1FBD8520728BF30C148BFEA
:1001A0000B6070471FB51FBD10B510BD00F033F8D0
:1001B0001146FFF7F7FF00F079FF00F051F803B4A4
:1001C000FFF7F2FF03BC00F05AFF00000948804728
:1001D00009480047FEE7FEE7FEE7FEE7FEE7FEE729
:1001E000FEE7FEE7FEE7FEE704480549054A064B41
:1001F000704700005B0B000831010008B0000020D0
:10020000B0060020B0020020B00200207047704706
:10021000704770477047754600F02CF8AE460500F1
:100220006946534620F00700854618B020B5FFF711
:10023000DBFFBDE820404FF000064FF000074FF015
:1002400000084FF0000B21F00701AC46ACE8C009F4
:10025000ACE8C009ACE8C009ACE8C0098D467047FD
:1002600010B50446AFF300802046BDE81040FFF70C
:10027000A6BF0000004870475000002000BFFEE706
:100280007047000010B501200249087000F088F89E
:1002900010BD00001C00002010B54FF4806000F07D
:1002A00085F828B1012008490870800200F078F82C
:1002B0004FF4006000F086F828B10120034908706F
:1002C000C00200F06DF810BD2600002027000020BD
:1002D00010B5012002490870022000F061F810BD3D
:1002E0001D00002010B5012002490870042000F014
:1002F00057F810BD1E00002010B5012002490870FB
:10030000082000F04DF810BD1F00002010B501209E
:1003100002490870102000F043F810BD20000020B2
:1003200010B5202000F042F828B1012017490870CC
:10033000202000F035F8402000F038F828B10120E6
:1003400013490870402000F02BF8802000F02EF8B0
:1003500028B101200F490870802000F021F84FF4E7
:10036000807000F023F828B101200B4908700002CA
:1003700000F016F84FF4007000F018F828B10120D2
:1003800006490870400200F00BF810BD2100002063
:10039000220000202300002024000020250000204F
:1003A0000149086070470000140401400146002024
:1003B000034A12680A400AB1012000E00020704799
:1003C00014040140014600200022074B1B6803EA89
:1003D0000102054B14331B680B4013B10AB1012015
:1003E00000E0002070470000000401400021234984
:1003F0008279002A3AD00A46126803689A430B466B
:100400001A600A1D126803689A430B1D1A6002796C
:1004100011440A6803681A430A60184A08321268CD
:1004200003689A43154B08331A601A1D1268036853
:100430009A43124B0C331A604279102A0ED11A1FBC
:10044000126803681A430D4B08331A601A1D1268AC
:1004500003681A43094B0C331A600DE007494279CF
:1004600011440A6803681A430A6005E002791144DE
:100470000A6803689A430A6070470000000401405C
:1004800030B500228B071C0F0F2303FA04F20B4B2D
:100490008C1053F824309343084C8D1044F82530C9
:1004A00023468C1053F824308C07240F00FA04F4F0
:1004B0002343024C8D1044F8253030BD0800014024
:1004C0002DE9F041024600250026002000230024EB
:1004D000002791F803C00CF00F0591F803C00CF051
:1004E000100CBCF1000F03D091F802C04CEA0505D6
:1004F00091F800C0BCF1000F31D0146800202BE04F
:100500004FF0010C0CFA00F3B1F800C00CEA03063E
:100510009E4220D183004FF00F0C0CFA03F7BC432E
:1005200005FA03FC4CEA040491F803C0BCF1280F5F
:1005300006D14FF0010C0CFA00FCC2F814C00AE01E
:1005400091F803C0BCF1480F05D14FF0010C0CFA33
:1005500000FCC2F810C0401C0828D1D31460B1F8C8
:1005600000C0BCF1FF0F34DD546800202EE000F124
:10057000080C4FF0010808FA0CF3B1F800C00CEABF
:1005800003069E4221D183004FF00F0C0CFA03F7B3
:10059000BC4305FA03FC4CEA040491F803C0BCF127
:1005A000280F05D100F1080C08FA0CF8C2F81480E5
:1005B00091F803C0BCF1480F07D100F1080C4FF0CF
:1005C000010808FA0CF8C2F81080401C0828CED3A5
:1005D0005460BDE8F0810000F0B50A460023002415
:1005E0000021002500F00046B6F1004F02D11D4E5B
:1005F000F16901E01B4E7168C0F3034583B200F45A
:100600004016B6F5401F08D121F07061154E76688E
:1006100026F07066134F7E6012E000F48016B6F587
:10062000801F06D1032606FA05F4A14341F070614C
:1006300006E0460D360103FA06F6B14341F070615B
:1006400022B1460D360103FA06F6314300F00046AA
:10065000B6F1004F02D1034EF16101E0014E71602D
:10066000F0BD00000000014000BFFEE71FB5012102
:10067000084600F059F901210C2000F055F940F22C
:10068000FF70ADF80C0048208DF80F0003A9444816
:10069000FFF716FF4FF40060ADF80C0048208DF80E
:1006A0000F0003A93F48FFF70BFF0F210120FFF7C1
:1006B000E7FE0B210020FFF7E3FE40F6FF700190FC
:1006C00000208DF808000C208DF8090001208DF81D
:1006D0000A0001A8FFF78AFE06208DF8000002201C
:1006E0008DF8010001208DF802008DF803006846A6
:1006F00000F080F807208DF8000002208DF801003E
:1007000001208DF802008DF80300684600F072F8B1
:1007100008208DF8000002208DF8010001208DF8DE
:1007200002008DF80300684600F064F809208DF897
:10073000000002208DF8010001208DF802008DF8E4
:100740000300684600F056F80A208DF800000220E9
:100750008DF8010001208DF802008DF80300684635
:1007600000F048F817208DF8000002208DF80100F5
:1007700001208DF802008DF80300684600F03AF879
:1007800028208DF8000002208DF8010001208DF84E
:1007900002008DF80300684600F02CF81FBD000031
:1007A000000C01400008014008B50121042000F0C0
:1007B000BBF80E20ADF8000010208DF803000320D8
:1007C0008DF8020069460648FFF77AFE01200549C8
:1007D00008600549C1F8880102490831086008BD70
:1007E00000080140840121420000214200BFFEE7D1
:1007F0007047000070B5002100230F22C47804B3B5
:10080000154C246804F4E064C4F5E064210AC1F1E5
:100810000403CA40447804FA03F184781440214365
:1008200009010E4C0678A155047804F01F05012437
:10083000AC4005786D11AD0005F1E025C5F800412B
:1008400009E0047804F01F050124AC40044D06784B
:10085000761145F8264070BD0CED00E000E400E0A4
:1008600080E100E002490143024A11607047000044
:100870000000FA050CED00E02DE9F04F85B082464E
:100880008B46002004901B48006801F0ABF804463A
:100890000D465146584601F0D1F8019001F0A2F8FA
:1008A000154A164BCDE9020100F0B2FF064622467A
:1008B0002B4600F0D1FD804600F026FF04900498FE
:1008C00000F5FA700E49488108464089B0F5FA7F74
:1008D00002DA4FF4FA7048810948408940F6C411A1
:1008E000884202DD0846064948810548408905B02E
:1008F000BDE8F08F340000207D3F355EBA49E03F0F
:10090000440000207047000029B1064AD269024322
:10091000044BDA6104E0034AD2698243014BDA6195
:10092000704700000010024029B1064A9269024354
:10093000044B9A6104E0034A92698243014B9A6135
:1009400070470000001002400F48006840F00100AE
:100950000D490860084640680C4908400A4948604B
:10096000084600680A4908400749086008460068C8
:1009700020F4802008600846406820F4FE004860AB
:100980004FF41F0088607047001002400000FFF81D
:10099000FFFFF6FE30B500210022002400232D4D7C
:1009A0006D6805F00C0121B1042905D0082923D177
:1009B00005E0294D056022E0274D05601FE0254D2B
:1009C0006D6805F47012234D6D6805F480340225BE
:1009D00005EB92421CB9214D554305600BE01D4DBE
:1009E0006D6805F400351DB11C4D5543056002E0EE
:1009F000194D5543056002E0174D056000BF00BF6B
:100A0000144D6D6805F0F0010909154D6B5C056822
:100A1000DD4045600F4D6D6805F4E061090A104D39
:100A20006B5C4568DD4085600A4D6D6805F460517A
:100A3000C90A0B4D6B5C4568DD40C560054D6D68AE
:100A400005F44041890B074D6B5CC568B5FBF3F5B8
:100A5000056130BD0010024000127A0000093D001F
:100A6000040000201400002010B5014600220023DD
:100A700000204A11012A02D1094C236806E0022A0B
:100A800002D1074C236A01E0054C636A01F01F02A2
:100A9000012494401C400CB1012000E0002010BD56
:100AA000001002400248406800F00C00704700004F
:100AB0000010024001460020034A506820F0F00078
:100AC0000843506070470000001002400149086070
:100AD000704700000000424201460020034A50686F
:100AE00020F4E060084350607047000000100240AE
:100AF00001460020034A506820F4605040EAC100DB
:100B000050607047001002400149086670470000BD
:100B10000000424202460020044B586820F47C103A
:100B200042EA01031843014B58607047001002402D
:100B300001460020034A506820F00300084350603B
:100B40007047000000100240704710B5232144F6A2
:100B50001F6000F02FF810BD704710B5FFF7F4FECE
:100B60000120FFF7B3FF00BF2120FFF77DFF002822
:100B7000FAD00020FFF79EFF0020FFF7B9FF4FF4E7
:100B80008060FFF7A9FF4FF4E0110020FFF7C2FFDC
:100B90000120FFF7B9FF00BF3920FFF765FF0028EC
:100BA000FAD00220FFF7C4FF00BFFFF77BFF082841
:100BB000FBD110BD30B589B005460C460121084671
:100BC000FFF7A2FE01210920FFF7AEFE01211E481A
:100BD000FFF702FD4FF40060ADF8200018208DF8FB
:100BE000230003208DF8220008A91848FFF768FCAD
:100BF000ADF81850ADF814400020ADF81A00ADF86B
:100C0000160005A94FF0804000F004F96020ADF80F
:100C100004000120ADF806000020ADF80A00ADF890
:100C20000C0001A94FF0804000F0A6F80821C8068A
:100C300000F0E0F80121880700F072F80121880730
:100C400000F07DF809B030BD00021800000C014032
:100C500010B50121254800F07EF8002845D001217B
:100C6000224800F069F82248007888B921480078C5
:100C700070B92148007858B92048007840B9204818
:100C8000007828B91F48007810B91F48007820B1B3
:100C90001E480068401D1D4908601D48007840B985
:100CA0001C48007828B91C48007810B91B48007807
:100CB000D8B1164800F000FB0020144908600C4928
:100CC00008700C4908700C4908700C4908700C49F0
:100CD00008700C4908700C4908700D4908700D49DE
:100CE00008700D4908700D49087010BD00040040DF
:100CF0001C0000201D0000201E0000201F000020FE
:100D00002000002021000020220000202C000020D4
:100D100023000020240000202500002026000020C1
:100D200021B1028842F08002028004E002884FF67E
:100D30007F731A4002807047CA430282704721B114
:100D4000028842F00102028004E002884FF6FE733E
:100D50001A400280704730B502460020002300246C
:100D6000158A05EA0103958905EA010413B10CB15E
:100D7000012000E0002030BD70B5002200230024D7
:100D8000058C4EF6FF7635400584038C8488828B73
:100D900048F6FF752A404FF6FF452A400D884FF66A
:100DA000FF7606EA05252A434DF6FF752B400D898F
:100DB00006EA05352B434D8806EA05352B430B4DD6
:100DC000A84202D00A4DA84208D14BF6FF752C402C
:100DD0008D894FF6FF7606EA85152C438480828341
:100DE000CD88A0F84050038470BD0000002C014065
:100DF000003401400A460021818B4FF2FF731940F5
:100E00004FF6FF7303EA0223194381837047A0F86A
:100E100040107047002202881D4B98420ED01D4B97
:100E200098420BD0B0F1804F08D01B4B984205D0B0
:100E30001A4B984202D01A4B984204D14FF68F7346
:100E40001A404B881A43174B984207D0164B9842CA
:100E500004D04FF6FF431A40CB881A4302808B8898
:100E600083850B8803850A4B98420BD0094B984227
:100E700008D00E4B984205D00D4B984202D00D4B36
:100E8000984201D10B7A03860123838270470000C8
:100E9000002C0140003401400004004000080040E4
:100EA000000C0040001000400014004000400140D1
:100EB000004401400048014010B500F0A5F910BD04
:100EC00021B1828942F40052828104E082894DF688
:100ED000FF731A408281704702460020B1F5007FFF
:100EE00000D100BF13880B400BB1012000E00020AF
:100EF000704770B50246002400230025002040F60C
:100F00006A16B14200D100BFC1F3421501F01F03C0
:100F1000012606FA03F3012D02D19689334006E03B
:100F2000022D02D1168A334001E0968A33400C121A
:100F3000012606FA04F41688344013B10CB10120DE
:100F400000E0002070BDF0B5034600240026002517
:100F5000002040F66A17B94200D100BF1846C1F31D
:100F6000421401F01F06012707FA06F5012C01D1F2
:100F70000C3004E0022C01D1103000E014301AB122
:100F800007682F43076002E00768AF430760F0BDC2
:100F90002DE9F04786B005460E460024A24600BF64
:100FA000A1460027B08900B100BF2F462C8A4CF61D
:100FB000FF700440F08804432C82AC894EF6F31095
:100FC0000440B08831890843718908430443AC81E7
:100FD000AC8A4FF6FF400440B0890443AC8201A8BC
:100FE000FFF7D8FC1F48874202D1DDF810A001E0CE
:100FF000DDF80CA0A88900F4004040B10AEBCA005B
:1010000000EB0A1031684900B0FBF1F807E00AEB89
:10101000CA0000EB0A1031688900B0FBF1F86420C7
:10102000B8FBF0F004012009642101FB1089A889B4
:1010300000F4004040B1322000EBC900B0FBF1F0F9
:1010400000F00700044308E0322000EB091064219F
:10105000B0FBF1F000F00F0004432C8106B0BDE8B6
:10106000F08700000038014001468888C0F308007E
:101070007047C1F308028280704700BFFEE7014657
:1010800000BF70470420074908700846007840F206
:10109000131148434FF6FF7101EA800002490880AE
:1010A00070470000000000200200002000BF002464
:1010B000FFF753FDFFF7E6FF4FF4A060FFF7D2FB09
:1010C0004FF4165000F050F8FFF73FFDFFF7CEFA4F
:1010D000FFF76AFB4FF4FA701D49488137E01D485D
:1010E0000078002833D01C480078A8B11B498878C4
:1010F00000F066FD06461949487800F061FD074694
:101100003146FFF7B9FB85B229464FF08040FFF723
:101110007EFE0020104908701148007810B10020B0
:101120000F49087000240DE000BF40210D48FFF773
:10113000D3FE0028F9D00948015D0A48FFF799FF5E
:10114000601CC4B2042CEFDB002002490870C6E723
:10115000440000203E0000203F0000203800002016
:10116000400000200038014010B586B0044601213F
:1011700044F20400FFF7D8FB4FF40070ADF8140000
:1011800003208DF8160018208DF8170005A91C48BB
:10119000FFF796F94FF48060ADF8140004208DF845
:1011A000170005A91648FFF78BF925208DF80000D8
:1011B00001208DF801008DF802008DF803006846CB
:1011C000FFF718FB01940020ADF80800ADF80A0005
:1011D000ADF80C00ADF810000C20ADF80E0001A920
:1011E0000848FFF7D5FE012240F225510548FFF7D8
:1011F000AAFE01210348FFF763FE06B010BD000000
:10120000000801400038014010B540F22551244843
:10121000FFF76FFE002841D02148FFF725FFC4B239
:1012200020480078012806D0022811D0032821D0B8
:10123000042832D126E0AA2C04D11A480078401C98
:10124000184908701848047001201849087024E0F3
:101250001548447013480078401C12490870124821
:10126000407818B101201249087002E001201149AC
:10127000087012E00C4884700A480078401C094944
:1012800008700AE0BB2C02D101200849087006480A
:10129000C47001200349087000BF00BF10BD0000EA
:1012A0000038014041000020380000203E000020AE
:1012B0003F000020400000202DE9FF410546104B73
:1012C0000FCB8DE80F0000242E68C6F3072706F029
:1012D000FF080197CDF8088000BF0DE000BF402156
:1012E0000848FFF7F9FD0028F9D03DF8240081B245
:1012F0000448FFF7BEFE641C042CEFDBBDE8FF8151
:101300007C1C00080038014010B591EA030F48BF6B
:1013100083F0004300F18482841A71EB030C05D240
:10132000121943EB0C03001B61EB0C01DFF824E105
:101330004FEA1154A4EB135C1EEA430F18BF9EEA58
:10134000445F73D023EA0E03DCF1200E21EA04513E
:1013500043F4801332D322FA0CFE10EB0E0023FA72
:101360000CFE41EB0E01CCF1200E03FA0EFE10EB49
:101370000E0051F10001B1F5801FCCF1200E32D2E8
:1013800001EB045112FA0EF2BDE8104058BF70474D
:10139000401C38BF5FEA420218BF7047002814BFE4
:1013A00020F0010041F100014FEA410313F5001F55
:1013B00038BF7047A1F1C04100F023BA012A43EBC6
:1013C0000302ACF1200CDCF11F0E32BF4FF0000E17
:1013D00023FA0CF310EB030041EB0451B4EB115F63
:1013E000D0D0A1EB045101F5801149085FEA30002B
:1013F00001EB04510ED350F1000038BF12FA0EFE7B
:1014000008D1BDE81040C9E7401C38BF5FEA42027E
:10141000CAD1C3E7BDE810404FEA410313F5001FEE
:1014200038BF7047A1F1C04100F0EBB99EEA445FBC
:1014300008D011EA5E0FBDE8104004BF01F0004182
:1014400000207047BDE8104070B500F08CF900BF77
:1014500064FBBE3E0000E0FF2DE9C04130B4DFF880
:10146000A0C23CEA111418BF3CEA131400F0EC804F
:1014700081EA03051CEA111444EAD57418BF1CEA7A
:10148000131500F0C780A4EB05044FF0004545EAB2
:10149000C12145EAC32341EA505143EA525304F1C2
:1014A0007F74994204F500344FEAC0204FEAC2220B
:1014B00008BF904200F09C804FEA13650FF240167F
:1014C000765D4FEA134506FB05F7C7F1807706FB0B
:1014D00007F74FEAD737A7FB03687642C8F580388D
:1014E000A7FB06CE38BFA8F1010807FB08E64FF0BE
:1014F000000EA6FB028CE6FB03CEDCF1000CCEF165
:10150000004E38BFAEF1010EA6FB0C584FF000079D
:101510004FF00005E6FB0E87A1FB08C6A0FB07CE37
:1015200016EB0E0645F10005E1FB076515F1E04EEF
:101530007EBFA4F580345FEA46066D4116F1800750
:1015400045F100054FEA17274FEA066647EA0567A7
:10155000A6F1DE46B6F1805F4FEA15251FD9384661
:1015600024F0010C05EBC471BCF1FE6F01EB0C1112
:1015700002D8F0BCBDE8008124425CBF01F5801EAA
:101580009EEAC47F02D4F0BCBDE80081244238D476
:10159000F0BCA1F1C041BDE8004100F032B94FEA12
:1015A000D22242EA43524FEAD323A7FB02864FEAF4
:1015B000D02040EA415007FB03661EEA0E0F4FEAB7
:1015C000D12105FB026658BFA6EB0056B6EB0056CC
:1015D0004FEA520E4EEAC37E18EB0E0E56EB530E38
:1015E000BDD518EB02085E417F1C55F10005B6E73A
:1015F0004FF480154FF000074FF000064FF0000841
:10160000ADE7F0BC4FF0000001F1C04101F0004136
:10161000BDE8008111EA0C1F0CEA131500D00CE0A4
:1016200013EA0C1F00F025804FF00000F0BC81EAA7
:10163000030101F00041BDE80081F0BCBDE80041BC
:1016400081EA030100F0DDB8F0BCBDE8004170B5EF
:1016500000F089F8097EFC3E00F007B881EA03013A
:101660004FF0000001F00041704781EA030100F0F3
:10167000C8B8F0BCBDE800414FF0000021497047F8
:10168000FFFDFBF9F7F5F4F2F0EEEDEBE9E8E6E447
:10169000E3E1E0DEDDDBDAD8D7D5D4D3D1D0CFCDCE
:1016A000CCCBCAC8C7C6C5C4C2C1C0BFBEBDBCBB07
:1016B000BAB9B8B7B6B5B4B3B2B1B0AFAEADACAB02
:1016C000AAA9A8A8A7A6A5A4A3A3A2A1A09F9F9EDC
:1016D0009D9C9C9B9A99999897979695959493938E
:1016E000929191908F8F8E8E8D8C8C8B8B8A898925
:1016F00088888787868585848483838282818180A8
:101700000000FF070000F87F4FEA41034FEA535300
:10171000A3F58063D3F11E03C8BFD3F1210C0CDD08
:101720004FF0004242EAC12242EA505232FA03FC30
:101730008CEAE17CACEBE1707047102BC4BF002059
:10174000704703F5787CBCF1FF3F04D06FF0004296
:1017500082EA2100704770B500F005F849922480B4
:1017600000207047F2E70EF1020E2EF0030E5EF835
:10177000046B364205D4012A43EB030515F5001F1F
:1017800012D8012841EB010C1CF5001F0CD80ED11A
:101790004FEAD17C15F5001F0CEB4C0C0CF1020C40
:1017A00008BF4CEBD37C04E04FF0080C01E04FEA9B
:1017B000D37C0CEB4C0526FA05F606F00706B6F1CD
:1017C000040C06D20EEB860CBDE870404CF0010C08
:1017D0006047DFE80CF0090B02024FF000414FF0C8
:1017E0000000A1F5002170BD19461046012851EBFB
:1017F000010418BFD4F5001484BF002001F000419B
:1018000070BD0808A0F500114FEA310170470000D3
:1018100010B591EA030F48BF83F000433FF57CAD5C
:10182000841A71EB030C07D212198CF0004C43EBB5
:101830000C03001B61EB0C01DFF8A4E14FEA11542B
:10184000A4EB135C1EEA430F18BF9EEA445F00F04E
:10185000B08023EA6E03524221EA0451C3EB6E03C7
:1018600038BF5B1EDCF1200E25D322FA0CFE10EBF4
:101870000E0043FA0CFE41EB0E01CCF1200E03FAF0
:101880000EFE10EB0E0051F10001CCF1200E29D418
:1018900012FA0EF201EB0451BDE8104058BF704738
:1018A000401C1CBFB2F1004F704700280CBF491C00
:1018B00020F00100704712EB020E43EB030218BF49
:1018C0004FF0010E4EEA4202ACF1200CDCF11E0E8C
:1018D00054D943FA0CFE10EB0E0051F1FF31CCF15C
:1018E0001E0ED5D50EF1010E12FA0EFE404141EB4F
:1018F000010101EB445C5FEA5C5C10D910EBDE7027
:1019000001EB045138BFBEF1004FBDE8104018BFD5
:10191000704700280CBF491C20F00100704730D2EE
:101920004FEAD42C11F5001124F400641BD0B1FA55
:1019300081F20B3AA41AA41ED2F12003914030FA8E
:1019400003F31943904001EBCC71002C01EB0451DF
:10195000BDE81040A8BF704701F1C0414FF0000042
:1019600001F000417047B0FA80F310FA03F100D1A2
:1019700010BDE41A173C4805C90AE4E701EB04511D
:1019800010BD491001EB0451BDE810404FEA300092
:1019900002E04FF0000170474A0008BF0042F8D053
:1019A000B2F5001F28BF704701F000414FF0000062
:1019B00070479EEA445F07D011EA5E0FBDE8104011
:1019C00004BF002100207047BDE8104070B5FFF74C
:1019D000CAFE00BF40DFF63E83F00041104670476C
:1019E0000000E0FF43004FEAD30C4FEA3C0C4340B9
:1019F0001FBF40070CF1605113F0FE4F70471CF001
:101A0000006F03D100200CF0004170470CF0004340
:101A100043EA507010B540EACC0000F0E4F800BF93
:101A2000000000924FEA0001FFF7EBBE4FF00041CB
:101A30004FF00000A1F50021704700004FF47F0C2B
:101A40001CEAD0121EBF1CEAD11392EA0C0F93EAD3
:101A50000C0F00F0858090EA010F48BF42F48072BD
:101A600040F4000C41F400002CF07F4120F07F4056
:101A700000B58142A2EB03020FF2081CACEB504E02
:101A8000C0F100009EF800E04FEA4E0E00FB0EFC95
:101A900038BF49004FEA2C1C02F5FA020CFB0EF38A
:101AA0004FEACE1E4FEA112C4FEAC1210EEB635EC6
:101AB00042EB22420EFB0CFC4FEA1C5300FB0311CD
:101AC0004FEA112C4FEA01310EFB0CFC4FEADC4CC3
:101AD00000FB0C11C14228BF09184CEB03335DF821
:101AE00004EB10EB410143EBC250B2F57C0F38BF61
:101AF000704729D512F0F00F1CBF00F1C04000F074
:101B000000407047008182838485868788898B8C1A
:101B10008D8E8F919293959697999A9C9D9FA0A256
:101B2000A3A5A7A8AAACAEB0B2B3B5B7B9BCBEC0A6
:101B3000C2C5C7C9CCCED1D4D7D9DCDFE2E6E9EC47
:101B4000F0F3F7FAFE0000004FEA400C0CF1807C45
:101B5000BCF17E4F28BF7047B0F1C04000F089B89B
:101B600090EA010F0CEAD11348BF42F4807262453B
:101B700038BF634507D213F47F0F16D080EA010007
:101B800000F00040704710B500F02DF8097EFC3ED3
:101B900000F005B880EA010000F00040704780EADC
:101BA000010000F0004000F064B812F47F0F04BFA1
:101BB0000248704780EA010000F05BB80000C07F77
:101BC000B0FA80F310FA03F2C3F19D030AD0D905ED
:101BD00001EB1220530638BF704700F1010008BF27
:101BE00020F0010070470EF1020E2EF0030E5EF899
:101BF000044B244204D44FEA4102B2F17F4F11D882
:101C00004FEA4003B3F17F4F0CD80ED14FEAD07C9E
:101C1000B2F17F4F0CEB4C0C0CF1020C08BF4CEBFB
:101C2000D17C04E04FF0080C01E04FEAD17C0CEBD2
:101C30004C0324FA03F404F00704B4F1040C06D2B4
:101C40000EEB840CBDE810404CF0010C6047DFE85F
:101C50000CF0070802024FF00040A0F5800010BD14
:101C60000846420018BFD2F1807288BF00F00040E1
:101C700010BDFF2141EAD050C0057047CC000000E4
:101C80000000000000000000DD000000AC1C0008A7
:101C900000000020440000006C010008F01C000857
:101CA000440000206C0600008801000800000000CD
:101CB00000000000010203040102030406070809F2
:101CC0000204060800000000000000000000000000
:101CD0000000000000000000000000000000000004
:101CE00068E89F39000000000100000000010000CA
:04000005080001CD21
:00000001FF
