:020000040800F2
:1000000088070020CD010008AD0800084F07000850
:10001000A908000825050008C31600080000000014
:1000200000000000000000000000000015100008A3
:100030002905000800000000B90C0008291100087B
:10004000E7010008E7010008E7010008E7010008F0
:10005000E7010008E7010008E7010008E7010008E0
:10006000E7010008E7010008E7010008E7010008D0
:10007000E7010008E7010008E7010008E7010008C0
:10008000E7010008E7010008E7010008E7010008B0
:10009000E7010008E7010008E7010008E7010008A0
:1000A000E7010008E7010008E7010008E701000890
:1000B000E70100084D120008E7010008E701000809
:1000C000E7010008E7010008E7010008E701000870
:1000D000E7010008A1140008E7010008E701000893
:1000E000E7010008E7010008E7010008E701000850
:1000F000E7010008E7010008E7010008E701000840
:10010000E7010008E7010008E7010008E70100082F
:10011000E7010008E7010008E7010008E70100081F
:10012000E7010008E7010008E7010008E70100080F
:1001300000F002F800F03AF80AA090E8000C8244BF
:100140008344AAF10107DA4501D100F02FF8AFF29C
:10015000090EBAE80F0013F0010F18BFFB1A43F0A5
:1001600001031847E821000008220000103A24BFCC
:1001700078C878C1FAD8520724BF30C830C144BF0C
:1001800004680C607047000000230024002500264E
:10019000103A28BF78C1FBD8520728BF30C148BFEA
:1001A0000B6070471FB51FBD10B510BD00F033F8D0
:1001B0001146FFF7F7FF01F0D1FA00F051F803B450
:1001C000FFF7F2FF03BC01F07EFA00000948804708
:1001D00009480047FEE7FEE7FEE7FEE7FEE7FEE729
:1001E000FEE7FEE7FEE7FEE704480549054A064B41
:1001F000704700002D11000831010008880100201F
:10020000880700208803002088030020704770477B
:10021000704770477047754600F02CF8AE460500F1
:100220006946534620F00700854618B020B5FFF711
:10023000DBFFBDE820404FF000064FF000074FF015
:1002400000084FF0000B21F00701AC46ACE8C009F4
:10025000ACE8C009ACE8C009ACE8C0098D467047FD
:1002600010B50446AFF300802046BDE81040FFF70C
:10027000A6BF0000004870472401002021B1826819
:1002800042F00102826003E0826822F00102826093
:100290007047000010B504461248844208D101217D
:1002A000401500F037FD0021601500F033FD17E028
:1002B0000D48844208D10121001500F02BFD0021DA
:1002C000201500F027FD0BE00848844208D10121E9
:1002D000C80300F01FFD00214FF4004000F01AFD9C
:1002E00010BD00000024014000280140003C0140F6
:1002F000014600208A6802F004020AB1012000E0F1
:10030000002070470146C86C80B27047024600204A
:1003100013680B400BB1012000E00020704701463C
:1003200000208A6802F008020AB1012000E00020E3
:100330007047000030B502460020002350680F4C83
:1003400020400D790C6844EA0524204350609068F1
:100350000B4C2040D1E902542C434D7944EA45042A
:1003600020439060D06A20F470000C7C641EE4B2DC
:10037000234340EA0350D06230BD0000FFFEF0FF8F
:10038000FDF7F1FFF0B504460D4600200021092DD0
:1003900011DDE068A5F10A0606EB4607072606FA16
:1003A00007F18843A5F10A0606EB460603FA06F1B3
:1003B0000843E0600CE0206905EB4507072606FAD4
:1003C00007F1884305EB450603FA06F1084320616F
:1003D000072A0FDA606B561E06EB86071F2606FA01
:1003E00007F18843561E06EB860605FA06F1084318
:1003F000606322E00D2A0FDA206BD61F06EB86071A
:100400001F2606FA07F18843D61F06EB860605FA73
:1004100006F10843206310E0E06AA2F10D0606EB46
:1004200086071F2606FA07F18843A2F10D0606EBA0
:10043000860605FA06F10843E062F0BD816841F0E6
:1004400008018160704721B1826842F4A002826095
:1004500003E0826822F4A00282607047816841F064
:10046000040181607047000000B587B001214FF49E
:10047000017000F03FFC4FF4004000F01FFC022030
:10048000ADF8040000208DF8070001A9174800F01E
:100490004CF81748FFF7FEFE002002908DF80C0084
:1004A0008DF80D004FF4602004900020059001208D
:1004B0008DF8180002A90E48FFF73CFF01210C48F7
:1004C000FFF7DCFE0A48FFF7B9FF00BF0848FFF757
:1004D00026FF0028FAD10648FFF7C0FF00BF0448F6
:1004E000FFF706FF0028FAD107B000BD0008014061
:1004F0000024014008B50121042000F0FBFB10207E
:100500008DF80300ADF8000003208DF80200694665
:10051000034800F00AF81021014800F0E2F808BD95
:100520000008014000BFFEE770472DE9F041024698
:1005300000250026002000230024002791F803C096
:100540000CF00F0591F803C00CF0100CBCF1000F7B
:1005500003D091F802C04CEA050591F800C0BCF147
:10056000000F31D0146800202BE04FF0010C0CFA82
:1005700000F3B1F800C00CEA03069E4220D18300CC
:100580004FF00F0C0CFA03F7BC4305FA03FC4CEADE
:10059000040491F803C0BCF1280F06D14FF0010C00
:1005A0000CFA00FCC2F814C00AE091F803C0BCF1D8
:1005B000480F05D14FF0010C0CFA00FCC2F810C036
:1005C000401C0828D1D31460B1F800C0BCF1FF0F63
:1005D00034DD546800202EE000F1080C4FF00108D3
:1005E00008FA0CF3B1F800C00CEA03069E4221D1D0
:1005F00083004FF00F0C0CFA03F7BC4305FA03FC21
:100600004CEA040491F803C0BCF1280F05D100F1B5
:10061000080C08FA0CF8C2F8148091F803C0BCF179
:10062000480F07D100F1080C4FF0010808FA0CF848
:10063000C2F81080401C0828CED35460BDE8F08179
:10064000F0B50A46002300240021002500F00046F2
:10065000B6F1004F02D11D4EF16901E01B4E7168E9
:10066000C0F3034583B200F44016B6F5401F08D12D
:1006700021F07061154E766826F07066134F7E602B
:1006800012E000F48016B6F5801F06D1032606FAA4
:1006900005F4A14341F0706106E0460D360103FA0E
:1006A00006F6B14341F0706122B1460D360103FAFE
:1006B00006F6314300F00046B6F1004F02D1034E7A
:1006C000F16101E0014E7160F0BD000000000140E9
:1006D0000246002093680B400BB1012000E000208F
:1006E00070474161704701617047000010B50446D2
:1006F0000723012221460948FFF744FE012107484C
:10070000FFF7A1FE00BF02210448FFF7FFFD00280C
:10071000F9D00248FFF7F6FD10BD000000240140AB
:100720002DE9F04107460C460025002608E0384632
:10073000FFF7DCFF0544052000F0EAFF701CC6B29D
:10074000A642F4DBB5FBF4F080B2BDE8F08100BF57
:10075000FEE7000008B501213C2000F0CBFA1C2088
:10076000ADF8000048208DF8030069460748FFF700
:10077000DCFE69460648FFF7D8FE69460548FFF7E4
:10078000D4FE69460448FFF7D0FE08BD00080140CA
:10079000000C0140001001400014014010B5044657
:1007A00014B101202D4908702C480078002839D058
:1007B00010212B48FFF78CFF80B104212948FFF757
:1007C00087FF58B14FF400612748FFF781FF28B138
:1007D0004FF400412548FFF77BFF18BB0A2000F0CB
:1007E00097FF00201D49087010211D48FFF770FF7A
:1007F00008B9012010BD04211A48FFF769FF08B9A4
:100800000220F7E74FF400611748FFF761FF08B9CE
:100810000320EFE74FF400411448FFF759FFD8B920
:100820000420E7E710210E48FFF752FF012813D1FB
:1008300004210C48FFF74CFF01280DD1C1020A48E2
:10084000FFF746FF012807D1C1030848FFF740FF23
:10085000012801D1014908700020CBE75800002091
:10086000000C01400014014000100140000801404C
:1008700008B50121042000F03DFA4FF48070ADF876
:10088000000010208DF8030003208DF80200694657
:100890000448FFF74AFE4FF480710248FFF721FF3A
:1008A00008BD00000008014000BFFEE770470000DF
:1008B00070B5002100230F22C47804B3154C2468BE
:1008C00004F4E064C4F5E064210AC1F10403CA4001
:1008D000447804FA03F184781440214309010E4C52
:1008E0000678A155047804F01F050124AC40057872
:1008F0006D11AD0005F1E025C5F8004109E004786F
:1009000004F01F050124AC40044D0678761145F82B
:10091000264070BD0CED00E000E400E080E100E066
:1009200002490143024A1160704700000000FA05C5
:100930000CED00E030B5002419E004F1B001C8B2BC
:10094000002100F08DF90021084600F089F900210E
:10095000102000F085F9002505E00121002000F0BD
:100960007FF9681CC5B2802DF7DB601CC4B2082C6F
:10097000E3DB30BD00B500218D2000F071F90021CE
:10098000102000F06DF90021AE2000F069F900BDE3
:1009900008B501210C2000F0ADF910208DF80300FE
:1009A0004FF42050ADF8000003208DF80200694696
:1009B0005148FFF7BAFD4FF420514F48FFF791FE21
:1009C00010208DF80300A020ADF8000003208DF862
:1009D000020069464948FFF7A8FDA0214748FFF7F4
:1009E00080FE012046490860642000F091FE00204E
:1009F0004449C1F8AC01C82000F08AFE01204049FA
:100A000008600021AE2000F02BF90021084600F01C
:100A100027F90021102000F023F90021402000F0E8
:100A20001FF90021812000F01BF90021CF2000F0E8
:100A300017F90021A12000F013F90021C82000F0CF
:100A40000FF90021A62000F00BF90021A82000F0EA
:100A500007F900213F2000F003F90021D32000F026
:100A6000FFF80021084600F0FBF80021D52000F037
:100A7000F7F80021802000F0F3F80021D92000F0E1
:100A8000EFF80021F12000F0EBF80021DA2000F06F
:100A9000E7F80021122000F0E3F80021DB2000F04D
:100AA000DFF80021402000F0DBF80021202000F0DA
:100AB000D7F80021022000F0D3F800218D2000F0AB
:100AC000CFF80021142000F0CBF80021A42000F082
:100AD000C7F80021A62000F0C3F80021AF2000F0E5
:100AE000BFF80021AF2000F0BBF8FFF723FF002183
:100AF000084600F009F808BD000C0140000801405C
:100B0000AC8121420080214230B504460D4605F1FA
:100B1000B001C8B2002100F0A3F8102141EA14107E
:100B2000002100F09DF804F00F0141F001000021C8
:100B300000F096F830BD00002DE9F04107460E4662
:100B4000904600250024A8F12000C5B27F2F02DDC9
:100B50000027B01CC6B231463846FFF7D5FF002447
:100B600008E004EB05110F4A505C012100F078F811
:100B7000601CC4B2082CF4DB701CC1B23846FFF70D
:100B8000C3FF002409E004EB05110831054A505C5D
:100B9000012100F065F8601CC4B2082CF3DBBDE84D
:100BA000F08100005C1D00082DE9FF4F07469146CB
:100BB0001D460D9E4FF0000A002433E0281B401E06
:100BC000C1B20A2000F0D4FEB9FBF0F00A21B0FB5C
:100BD000F1F201FB1208BAF1000F13D1681EA04216
:100BE00010DDB8F1000F0BD1B34606EBDB714910F5
:100BF00001FB0471C8B220220199FFF79DFF0FE0AD
:100C00004FF0010AB34606EBDB71491001FB04719A
:100C1000C8B208F13001CAB20199FFF78DFF00BFD9
:100C2000601CC4B2AC42C9DBBDE8FF8FF0B504461E
:100C30000F46154600260EE0AA5D39462046FFF70E
:100C40007BFF04F10800C4B2782C02DD0024B81C3C
:100C5000C7B2701CC6B2A85D0028EDD1F0BD00007F
:100C600010B50A461AB10123114C236002E000239B
:100C70000F4C2360002115E000230E4C236000F090
:100C8000800323B101230B4C0834236003E00023CD
:100C9000084C083423600123064C23604306180ED9
:100CA0004B1CD9B20829E7DB0123014C236010BD9E
:100CB000B481214294012142704700000146002086
:100CC000034A506820F440400843506070470000D9
:100CD0000010024029B1064AD2690243044BDA618E
:100CE00004E0034AD2698243014BDA617047000095
:100CF0000010024029B1064A92690243044B9A61EE
:100D000004E0034A92698243014B9A6170470000F4
:100D10000010024029B1064AD2680243044BDA604F
:100D200004E0034AD2688243014BDA607047000056
:100D30000010024030B500210022002400232D4D78
:100D40006D6805F00C0121B1042905D0082923D1D3
:100D500005E0294D056022E0274D05601FE0254D87
:100D60006D6805F47012234D6D6805F4803402251A
:100D700005EB92421CB9214D554305600BE01D4D1A
:100D80006D6805F400351DB11C4D5543056002E04A
:100D9000194D5543056002E0174D056000BF00BFC7
:100DA000144D6D6805F0F0010909154D6B5C05687F
:100DB000DD4045600F4D6D6805F4E061090A104D96
:100DC0006B5C4568DD4085600A4D6D6805F46051D7
:100DD000C90A0B4D6B5C4568DD40C560054D6D680B
:100DE00005F44041890B074D6B5CC568B5FBF3F515
:100DF000056130BD0010024000127A0000093D007C
:100E000026000020360000202DE9F04104464FF076
:100E10000008642094FBF0F7642C03DA0A2094FBAA
:100E2000F0F507E0642094FBF0F100FB11400A218B
:100E300090FBF1F50A2094FBF0F100FB11463946D6
:100E4000012000F013F8012000F062FC2946022086
:100E500000F00CF8012000F05BFC3146032000F0AC
:100E600005F8012000F054FCBDE8F08110B50446FF
:100E70000B4600F0BFF8204600F0A0F8184600F03E
:100E800001F810BD01460A2911D2DFE801F0051171
:100E90001E2C39475664717E0020444A1060444A33
:100EA000C2F89C01434A1060434AC2F8AC017AE0A0
:100EB00001203E4A106000203D4AC2F89C013D4A94
:100EC00010603D4AC2F8AC016DE00020374A106066
:100ED0000120374AC2F89C010020364A1060364A89
:100EE000C2F8AC015FE00120304A1060304AC2F81D
:100EF0009C0100202F4A10602F4AC2F8AC0152E03A
:100F000000202A4A10602A4AC2F89C010120294A7E
:100F100010600020284AC2F8AC0144E00120234AB6
:100F200010600020224AC2F89C010120214A106072
:100F30000020214AC2F8AC0135E000201B4A1060B5
:100F400001201B4AC2F89C011A4A106000201A4A6C
:100F5000C2F8AC0127E00120144A1060144AC2F81C
:100F60009C01144A10600020134AC2F8AC011AE038
:100F700000200E4A10600E4AC2F89C010D4A106013
:100F800001200D4AC2F8AC010DE00120074A1060B3
:100F90000020074AC2F89C01064A10600120064A58
:100FA000C2F8AC0100BF00BF70470000BC81214205
:100FB00000002242A40122420000214201460129F0
:100FC00004D0022906D003290DD107E00120074AE9
:100FD000106008E00120064A106004E00120044A85
:100FE000083A106000BF00BF704700008401214232
:100FF0008C0122420020044908600449C1F88C0198
:101000000349086070470000840121420000224229
:1010100084012242704710B500F002F810BD0000B4
:101020000CB50020019000903348006840F48030F7
:101030003149086000BF3048006800F4003000907B
:101040000198401C0190009818B90198B0F5A06F64
:10105000F1D12948006800F4003010B1012000905F
:1010600001E0002000900098012843D12348006847
:1010700040F01000214908600846006820F0030095
:1010800008600846006840F0020008601A4840689E
:10109000194948600846406848600846406840F47E
:1010A000806048600846406820F47C10486008462C
:1010B000406840F4E81048600846006840F08070DE
:1010C000086000BF0C48006800F000700028F9D0EC
:1010D0000948406820F00300074948600846406816
:1010E00040F00200486000BF0348406800F00C0078
:1010F0000828F9D10CBD0000001002400020024079
:10110000042808D14FF0E021096941F004014FF0B3
:10111000E022116107E04FF0E021096921F00401AC
:101120004FF0E022116170477047000010B513487E
:10113000006840F001001149086008464068104905
:1011400008400E494860084600680E4908400B49AF
:1011500008600846006820F480200860084640685F
:1011600020F4FE0048604FF41F008860FFF753FF33
:101170004FF000600449086010BD000000100240FC
:101180000000FFF8FFFFF6FE08ED00E030B589B083
:1011900004460D460121C802FFF7ACFD01210520E0
:1011A000FFF7A8FD01212648FFF74AFA4FF48070A7
:1011B000ADF8200018208DF8230003208DF82200C0
:1011C00008A92048FFF7B1F9ADF81840ADF8145060
:1011D0000020ADF81A00ADF8160005A91A4800F075
:1011E0000DF96020ADF804000120ADF806000020E4
:1011F000ADF80C0001A9144800F0A8F80821124825
:1012000000F0F0F80121104800F079F80E48343071
:1012100000880D49343108800B484430008840F480
:1012200000400949443108800846008820F40060E5
:1012300008800846008820F48060088009B030BD2E
:101240004000160000080140002C014010B50121AB
:101250000E4800F060F8C0B101210C4800F04CF8D5
:101260000B480068401C0A49086008460068B0F551
:10127000A77F06DB0020086006480068401C05497F
:10128000086004480068FFF7BFFD10BD000400407F
:10129000540000203C0000207FB505460C4601218B
:1012A0000220FFF717FDADF80850ADF8044000200C
:1012B000ADF80A00ADF8060001A90E4800F09EF84E
:1012C000012211460B4800F037F81D208DF8000070
:1012D00000208DF8010003208DF8020001208DF818
:1012E00003006846FFF7E4FA0121024800F007F81E
:1012F0007FBD000000040040CA430282704721B154
:10130000028842F00102028004E002884FF6FE7378
:101310001A400280704730B50246002000230024A6
:10132000158A05EA0103958905EA010413B10CB198
:10133000012000E0002030BD1AB183890B43838176
:1013400002E083898B4383817047000070B50024DD
:1013500000220023058C4FF6FE7635400584028C72
:101360008388048B4FF68F752C40B51E2C400D885A
:101370002C43751E2A400D892A434D882A43144D5B
:10138000A8420BD0134DA84208D0134DA84205D057
:10139000124DA84202D0124DA84213D14FF6F77554
:1013A0002A404D892A434FF6FB752A408D882A43EF
:1013B0004FF6FF652B404FF6FF552B408D892B4391
:1013C000CD892B4383800483CD888586028470BDBC
:1013D000002C014000340140004001400044014025
:1013E000004801400A460021018B4FF6F77319406F
:1013F00011430183704781867047000000220288F4
:101400001D4B98420ED01D4B98420BD0B0F1804F2F
:1014100008D01B4B984205D01A4B984202D01A4B69
:10142000984204D14FF68F731A404B881A43174BDA
:10143000984207D0164B984204D04FF6FF431A400B
:10144000CB881A4302808B8883850B8803850A4BDF
:1014500098420BD0094B984208D00E4B984205D0C9
:101460000D4B984202D00D4B984201D10B7A038666
:101470000123838270470000002C014000340140AA
:101480000004004000080040000C00400010004034
:101490000014004000400140004401400048014069
:1014A00010B540F225511D4800F04AF810B31B4812
:1014B00000F002F9C4B21A48008800F40040C8B92C
:1014C0001748008800F4804060B10A2C03D0002047
:1014D0001349088020E01248008840F40040104979
:1014E000088019E00D2C06D10D48008840F480409A
:1014F0000B49088010E00A480088C0F30D00094934
:101500000C5407480088401C05490880084600889C
:10151000C72801DD0020088010BD00000038014010
:10152000240000205C00002021B1828942F4005296
:10153000828104E082894DF6FF731A4082817047F0
:1015400070B50246002400230025002040F66A16EC
:10155000B14200D100BFC1F3421501F01F030126C3
:1015600006FA03F3012D02D19689334006E0022DDD
:1015700002D1168A334001E0968A33400C120126CC
:1015800006FA04F41688344013B10CB1012000E0CF
:10159000002070BDF0B50346002400260025002081
:1015A00040F66A17B94200D100BF1846C1F3421491
:1015B00001F01F06012707FA06F5012C01D10C30B6
:1015C00004E0022C01D1103000E014301AB1076899
:1015D0002F43076002E00768AF430760F0BD0000DB
:1015E0002DE9F04786B005460E460024A24600BF0E
:1015F000A1460027B08900B100BF2F462C8A4CF6C7
:10160000FF700440F08804432C82AC894EF6F3103E
:101610000440B08831890843718908430443AC8190
:10162000AC8A4FF6FF400440B0890443AC8201A865
:10163000FFF780FB1F48874202D1DDF810A001E0D0
:10164000DDF80CA0A88900F4004040B10AEBCA0004
:1016500000EB0A1031684900B0FBF1F807E00AEB33
:10166000CA0000EB0A1031688900B0FBF1F8642071
:10167000B8FBF0F004012009642101FB1089A8895E
:1016800000F4004040B1322000EBC900B0FBF1F0A3
:1016900000F00700044308E0322000EB0910642149
:1016A000B0FBF1F000F00F0004432C8106B0BDE860
:1016B000F08700000038014001468888C0F3080028
:1016C000704700BFFEE7014600BF704710B56FF0DE
:1016D0000400FFF715FD0A4800680A49B0FBF1F065
:1016E000094908700846007800EB4001C1EBC010C2
:1016F0004FF6FF7101EAC0000449088010BD0000E8
:101700000800002000127A001C0000201E000020AB
:101710000146114A12884A434FF0E0235A610022E1
:101720009A611A46126942F001021A6100BF4FF035
:10173000E022106900F001021AB100F48032002AA0
:10174000F5D04FF0E022126922F001024FF0E023C1
:101750001A6100229A6170471E0000201CB5012703
:1017600000240026002500200190FFF7AFFFFFF7BF
:101770007FF8FEF7EFFFFEF7BDFEFEF775FEFFF701
:1017800007F900F001F900216420FFF7FFFC4FF496
:10179000A060FFF7C5F84FF4E13000F07BF9C3E03B
:1017A0000020FEF7FBFF01900A210320FEF7B8FF9F
:1017B00080460A20FFF7ACFF5C480068012823D16F
:1017C0002FB15B480068401C5949086004E0584844
:1017D0000068401E5649086055480068642800DBD0
:1017E00000275348006800B901275148008881B29A
:1017F0005048FFF700FE1020022300904C480421BF
:1018000002684020FFF7D0F9012E0DD14AA206212F
:101810000020FFF70BFA1020022300904748062112
:1018200002684020FFF7C0F9022E01D1FFF7A2F8AD
:101830009DF80400002874D09DF80400012806D00B
:10184000022821D0032849D0042868D154E03CA2C2
:1018500000210846FFF7EAF9204604EBD071491051
:10186000A4EB410149B91020042342460021009015
:101870004020FFF799F9641C05E032A200214020C6
:10188000FFF7D4F9641C4AE030A202210020FFF7E0
:10189000CDF9284605EBD0714910A5EB410171B98E
:1018A0002CA202214020FFF7C1F92B48006808B99B
:1018B000012000E00020284908606D1C0DE027A2EF
:1018C00002214020FFF7B2F92348006808B901203F
:1018D00000E00020204908606D1C20E020A20421C7
:1018E0000020FFF7A3F91FA204215020FFF79EF963
:1018F00001200E49086012E00020FFF785FA012060
:1019000015490C3908601849C1F88C01174908605D
:1019100041F61F412720FFF7BFFC761C00BF03E004
:10192000FFE70A20FFF7F4FE3AE70000040000207A
:1019300000000020002C0140534D47003C000020D7
:1019400041440000204F46460000000042454550FB
:1019500000000000204F4E00900121424F464600FB
:10196000424C4E0025000000000022428401224229
:1019700010B50246012000E050430B1EA1F1010406
:10198000E1B2F9D110BD000008B501211C20FFF71C
:10199000B1F910208DF80300C001ADF8000003205C
:1019A0008DF8020069463848FEF7BFFD4FF400612C
:1019B0003548FEF798FE10208DF80300C002ADF800
:1019C000000003208DF8020069463048FEF7ADFDA7
:1019D0004FF400412D48FEF786FE10208DF80300DD
:1019E0008020ADF8000003208DF8020069462848E9
:1019F000FEF79BFD80212648FEF775FE10208DF82E
:101A000003004001ADF8000003208DF80200694694
:101A10001F48FEF78AFD4FF400711D48FEF763FE74
:101A200010208DF803000220ADF8000003208DF88F
:101A3000020069461448FEF778FD02211248FEF7BD
:101A400050FE10208DF803000220ADF800000320A6
:101A50008DF8020069460E48FEF767FD02210C482A
:101A6000FEF73FFE10208DF803000820ADF80000BF
:101A700003208DF8020069460548FEF756FD08214F
:101A80000348FEF72EFE08BD00080140000C01408F
:101A90000010014010B586B00446012144F2040054
:101AA000FFF728F94FF40070ADF8140003208DF80B
:101AB000160018208DF8170005A91C48FEF735FD03
:101AC0004FF48060ADF8140004208DF8170005A9CC
:101AD0001648FEF72AFD25208DF8000003208DF81A
:101AE00001008DF8020001208DF803006846FEF722
:101AF000DFFE01940020ADF80800ADF80A00ADF853
:101B00000C00ADF810000C20ADF80E0001A908483B
:101B1000FFF766FD012240F225510548FFF73AFD27
:101B200001210348FFF700FD06B010BD0008014089
:101B3000003801400000000000000000002F0000FD
:101B400000000700070000147F147F1400242A7F80
:101B50002A120062640813230036495522500000FF
:101B60000503000000001C224100000041221C006F
:101B70000014083E08140008083E0808000000A0F1
:101B800060000008080808080000606000000020ED
:101B900010080402003E5149453E0000427F4000CB
:101BA000004261514946002141454B310018141251
:101BB0007F10002745454539003C4A49493000011E
:101BC0007109050300364949493600064949291E6D
:101BD00000003636000000005636000000081422CF
:101BE00041000014141414140000412214080002CF
:101BF0000151090600324959513E007C1211127CF4
:101C0000007F49494936003E41414122007F414120
:101C1000221C007F49494941007F09090901003E12
:101C20004149497A007F0808087F0000417F410050
:101C3000002040413F01007F08142241007F4040C6
:101C40004040007F020C027F007F0408107F003EAE
:101C50004141413E007F09090906003E4151215E94
:101C6000007F091929460046494949310001017F91
:101C70000101003F4040403F001F2040201F003F27
:101C80004038403F006314081463000708700807D9
:101C900000615149454300007F41410000552A55EC
:101CA0002A55000041417F00000402010204004067
:101CB0004040404000000102040000205454547889
:101CC000007F4844443800384444442000384444A9
:101CD000487F00385454541800087E090102001847
:101CE000A4A4A47C007F080404780000447D400084
:101CF000004080847D00007F102844000000417F68
:101D00004000007C04180478007C08040478003843
:101D10004444443800FC242424180018242418FCCB
:101D2000007C0804040800485454542000043F4434
:101D30004020003C4040207C001C2040201C003CF7
:101D40004030403C004428102844001CA0A0A07C47
:101D5000004464544C44141414141414000000007F
:101D6000000000000000000000000000000000F87B
:101D700000000000000000333000000000100C06DE
:101D8000100C0600000000000000000040C0784079
:101D9000C0784000043F04043F040400007088FC45
:101DA00008300000001820FF211E0000F008F0009D
:101DB000E018000000211C031E211E0000F008880E
:101DC000700000001E2123241927211010160E0078
:101DD000000000000000000000000000000000E023
:101DE0001804020000000007182040000002041838
:101DF000E00000000040201807000000404080F094
:101E0000804040000202010F01020200000000F0C9
:101E1000000000000101011F01010100000000009D
:101E20000000000080B07000000000000000000012
:101E3000000000000001010101010101000000009B
:101E40000000000000303000000000000000000032
:101E500080601804006018060100000000E010080F
:101E60000810E000000F102020100F00001010F8E4
:101E7000000000000020203F202000000070080823
:101E800008887000003028242221300000300888A3
:101E9000884830000018202020110E000000C020CB
:101EA00010F8000000070424243F240000F80888EC
:101EB000880808000019212020110E0000E0108879
:101EC00088180000000F112020110E0000380808AB
:101ED000C83808000000003F0000000000708808BB
:101EE00008887000001C222121221C0000E010083C
:101EF0000810E0000000312222110F00000000C095
:101F0000C000000000000030300000000000008031
:101F10000000000000008060000000000000804021
:101F2000201008000001020408102000404040403A
:101F3000404040000404040404040400000810208D
:101F400040800000002010080402010000704808D2
:101F50000808F0000000003036010000C030C8283A
:101F6000E810E0000718272423140B000000C038F5
:101F7000E0000000203C23020227382008F888886F
:101F800088700000203F202020110E00C03008087B
:101F900008083800071820202010080008F8080852
:101FA0000810E000203F202020100F0008F888884B
:101FB000E8081000203F20202320180008F8888817
:101FC000E8081000203F200003000000C03008088F
:101FD0000838000007182020221E020008F8080018
:101FE0000008F808203F210101213F20000808F8DF
:101FF000080800000020203F202000000000080802
:10200000F8080800C08080807F00000008F888C0C1
:1020100028180800203F20012638200008F8080072
:1020200000000000203F20202020300008F8F800A9
:10203000F8F80800203F003F003F200008F830C0BB
:102040000008F808203F200007183F00E0100808AB
:102050000810E0000F10202020100F0008F80808DA
:102060000808F000203F210101010000E0100808ED
:102070000810E0000F18242438504F0008F8888812
:1020800088887000203F2000030C302000708808F2
:10209000080838000038202121221C00180808F800
:1020A000080818000000203F2000000008F8080081
:1020B0000008F808001F202020201F000878880052
:1020C00000C83808000007380E010000F80800F8C2
:1020D0000008F800033C0700073C0300081868806C
:1020E0008068180820302C03032C30200838C800E2
:1020F000C83808000000203F200000001008080831
:10210000C83808002038262120201800000000FED2
:10211000020202000000007F40404000000C30C07E
:1021200000000000000000010638C00000020202AA
:10213000FE000000004040407F000000000004025C
:102140000202040000000000000000000000000087
:102150000000000080808080808080800002020477
:10216000000000000000000000000000000080806F
:10217000808000000019242222223F2008F80080DD
:1021800080000000003F112020110E0000000080A0
:1021900080800000000E112020201100000000802F
:1021A0008088F800000E112020103F200000808061
:1021B00080800000001F222222221300008080F075
:1021C000888888180020203F2020000000008080A0
:1021D00080808000006B94949493600008F80080E5
:1021E00080800000203F210000203F200080989840
:1021F000000000000020203F2020000000000080A0
:102200009898000000C08080807F000008F80000DF
:1022100080808000203F24022D302000000808F834
:10222000000000000020203F2020000080808080EF
:1022300080808000203F20003F20003F8080008081
:1022400080800000203F210000203F20000080808F
:1022500080800000001F202020201F008080008040
:102260008000000080FFA12020110E0000000080EF
:1022700080808000000E112020A0FF8080808000E0
:102280008080800020203F2120000100000080800D
:10229000808080000033242424241900008080E002
:1022A000808000000000001F2020000080800000CF
:1022B00000808000001F202020103F2080808000B0
:1022C0000080808000010E300806010080800080C0
:1022D000008080800F300C030C300F0000808000E5
:1022E000808080000020312E0E3120008080800010
:1022F0000080808080818E701806010000808080C0
:10230000808080000021302C22213000000000005D
:10231000807C020200000000003F404000000000FE
:10232000FF00000000000000FF0000000002027C2F
:10233000800000000040403F000000000006010156
:102340000202040400000000000000006C230008EA
:10235000000000205C0000006C010008C823000899
:102360005C0000202C07000088010008000000002D
:102370000000000000A24A0400000000000000006D
:102380000102030406070809000000000000000025
:10239000000000000000010203040102030406071C
:1023A0000809020406080000000000000000000008
:1023B000000000000000000000000000000000001D
:0823C000000000000100000014
:04000005080001CD21
:00000001FF
